:030000000215B531
:1015B50078FFE4F6D8FD9000007F007E04E4F0A3F8
:0A15C500DFFCDEFA75815102160A00
:101EF10075D21375D36475D11275D6BFE4F5D44389
:031F0100A9022210
:0300430002196639
:10196600C0E0C0D075D000C006C00753D2BF054244
:10197600E542AE417002054114D39544EE954340CD
:1019860033754100754200AFD6EF700B754501F512
:101996004675430175442CAFD6EF64BF700AF54512
:1019A600754601F543754496E545600205D6E5465C
:0D19B600600215D6D007D006D0D0D0E032A8
:101E92007E007F067D007B007A007941120AC353DF
:081EA200D27FE4F5D3F5D6224E
:101E47007E007F067D007B007A007941120AC3532A
:091E5700D27FE4F5D375D6FF2219
:071FAA00121EF143D2802258
:051C7F00EF6402702279
:101C8400F50AF50B758FC0759D50F50A750B4E85D9
:101C94000B9EE50AF59575A90143A101D2A0E4FEC6
:021CA400FF221D
:051CA6007EFF7FFF221C
:1016E1008B128A138914EF64017027E5161516AC65
:1016F10015700215154C605CC299AB120514E51406
:10170100AA137002051314F91208FCF5992099DB4C
:1017110080FBEF6402703DE5217039D3E516940733
:10172100E5159400502E7E007F0C7D007B007A0031
:101731007921120AC3AE15AF1678267C007D00AB65
:1017410012AA13A9141208D685152285162375210C
:051751000185269F2226
:101F0400E4F58E758911758A18758CFCC28CD2A97A
:031F1400D28C224A
:061EAA00044B00000000E3
:0A1F6C00E4F54EF54DF54CF54B225F
:101E1300AF4EAE4DAD4CAC4BEF2401F54EE43EF569
:0A1E23004DE43DF54CE43CF54B2284
:091F8000AF4EAE4DAD4CAC4B224E
:101DC0008F4A8E498D488C47121F80120A59AF4A9C
:0C1DD000AE49AD48AC47900004020A7315
:101C4F008B4F8A508951900004120A29120A97C3A8
:101C5F00E54E9BFBE54D9AFAE54C99F9E54B98F863
:101C6F00C31209F2E440047F018001FFFEFDFC2254
:031D8600E4FFFE79
:101D8900EF1FAA0670011E4A600FE4FDEDD394000F
:091D99007480948040EA1D80F37F
:011DA200221E
:091F89001209BAFFAEF0021F3B81
:1018A0008B118A1289131209BAFFAEF07B017A00FC
:1018B000E4FDFC121CD7121D86AB11AA12A913124B
:1018C00009BAFFAEF07B017A007D017C00121CD7C3
:1018D000121D86AB11AA12A9131209BAFFAEF0E4C9
:1018E000FBFAFDFC121CD7E4FFFE121D89AB11AA06
:1018F00012A9131209BAFFAEF0E4FBFA7D01FC1243
:081900001CD7E4FFFE021D8963
:0612B000AB0AAA0BA90C19
:0812B6008B118A1289138D14BB
:1012BE00E4F515C3E515940874809480506EE5141A
:1012CE00AB11AA12A91330E70D1209BAFFAEF07BCB
:1012DE00017A00E480091209BAFFAEF0E4FBFAFDD0
:1012EE00FC121CD7E51425E0F514E4FFFE121D894F
:1012FE00AB11AA12A9131209BAFFAEF07B017A0044
:10130E007D017C00121CD7E4FFFE121D89AB11AAD1
:10131E0012A9131209BAFFAEF0E4FBFA7D01FC121A
:10132E001CD7E4FFFE121D8905158087AB11AA128A
:10133E00A9131209BAFFAEF0E4FDFC121E2DAB117B
:10134E00AA12A9131209BAFFAEF07B017A007D0131
:10135E007C00121CD7E4FFFE121D89AB11AA12A944
:10136E00131209BAFFAEF0E4FDFC121DDCEF4E6065
:10137E0005E4F5168003751601AB11AA12A9131216
:10138E0009BAFFAEF0E4FBFA7D01FC121CD7E4FFB4
:10139E00FE121D89AB11AA12A9131209BAFFAEF0E3
:0B13AE007D017C00121E2DAF167E009A
:0113B9002211
:1019C3008B118A1289131209BAFFAEF0E4FBFA7D78
:1019D30001FC121CD7E4FFFE121D89AB11AA12A948
:1019E300131209BAFFAEF07B017A007D017C00126D
:1019F3001CD7E4FFFE121D89AB11AA12A913120909
:101A0300BAFFAEF07B017A00E4FDFC121CD7E4FFC1
:0B1A1300FE121D897FE87E03021D8982
:1017C7008B118A1289131209BAFFAEF07B017A00D6
:1017D700E4FDFC121CD7E4FFFE121D89AB11AA120F
:1017E700A9131209BAFFAEF07B017A007D017C00D4
:1017F700121CD7E4FFFE121D89AB11AA12A91312FE
:1018070009BAFFAEF0E4FBFA7D01FC121CD7E4FF36
:10181700FE121D89AB11AA12A9131209BAFFAEF065
:0E182700E4FBFAFDFC121CD7E4FFFE021D8953
:061475008B118A1289139D
:10147B00E4F5141209BAFFAEF0E4FDFC121E2DE4E4
:10148B00FFFE121D89E4F515C3E5159408748094CD
:10149B00805061AB11AA12A9131209BAFFAEF07BEF
:1014AB00017A007D017C00121CD7E4FFFE121D891E
:1014BB00AB11AA12A9131209BAFFAEF0E4FDFC128C
:1014CB001DDCEF4E600FAF15A8077480088002C3B8
:1014DB0013D8FC4214AB11AA12A9131209BAFFAE0E
:1014EB00F0E4FBFA7D01FC121CD7E4FFFE121D8910
:1014FB0005158094AB11AA12A9131209BAFFAEF00D
:09150B007D017C00121E2DAF14BD
:0115140022B4
:101B0F008D0D8B0A8A0B890C1218A0AB0AAA0BA990
:101B1F000CAD0D1212B6EF4EAB0AAA0BA90C700743
:101B2F001219C3E4FEFF22121475AB0EAA0FA910EF
:101B3F00EF120915AB0AAA0BA90C1217C7AB0AAA09
:0B1B4F000BA90C1219C37E007F0122BD
:101BA4008D0D8B0A8A0B890C1218A0AD0D1212B080
:101BB400EF4E7008AB0AAA0BA90C800FAD0E1212DF
:101BC400B0EF4EAB0AAA0BA90C70071219C3E4FEBE
:101BD400FF221217C7AB0AAA0BA90C1219C37E0065
:031BE4007F01225C
:0F1F3B00EF4E70064391304390307E007F0122BD
:101E2D00EF4E7012ED4C70055391DF8009ED64019A
:0A1E3D004C7003439120E4FEFF22E5
:101CD700EF4E7020ED4C700CEB4A6004D2958014E7
:101CE700C2958010ED64014C700AEB4A6004D294EF
:081CF7008002C294E4FEFF220A
:101DDC00EF4E7014ED4C7004A2958008ED64014C2C
:0C1DEC007006A294FE33FF22E4FEFF22EA
:0800030012151512005E80FBCE
:091EB0000335000000022D0000C2
:101DA300439A0243A1FC43D90353A23FD2A7D2D9FA
:0D1DB300D2D8D2A2D2A5D2A4D2A3D281222E
:1018350090005FE064017010C2D9C2A7900062E019
:1018450054FEF0121E92801790005FE06402702231
:10185500C2D9900062E054FEF0121E92121E477B20
:10186500017A007992900094E0FD900062E0F50E17
:101875008025121E92900078E06003121FAAD2D92B
:10188500D2A7900062E04401FFF07B017A007992D3
:0B189500900094E0FD8F0E121BA422B7
:100F590090005EE06075900062E0A3F0900078E098
:100F6900700690005EE0600B900062E054DFF0C212
:100F7900A38009900062E04420F0D2A390005FE0D2
:100F8900FD7C00700B900062E04401F0D2D9801919
:100F9900ED64014C7002800890005FE06402700902
:100FA900900062E054FEF0C2D9C281C2A3900062EF
:100FB900E054DFF04440FFF07B017A007992900021
:100FC90094E0FD8F0E121BA402106B90007DE0606F
:100FD9003DE4F090008404F0E490008AF0A3F090DE
:100FE9000062F0900078F0900062E044BFFFF07B6F
:100FF900017A007992900094E0FD8F0E121BA4D221
:10100900D9D2D8D2A2D2A5D2A4D2A3D28122900079
:1010190063E0900062F090005FE0FD7C00700B904F
:101029000062E04401F0D2D98019ED64014C7002EC
:10103900800890005FE064027009900062E054FE4D
:10104900F0C2D97B017A007992900094E0FD90007A
:1010590063E0F50E121BA4D281D2A3900062E04492
:1010690020F090007C7401F0E490008AF0A3F02253
:101EDA0090005EE0701090007C04F090007BF0E4CB
:071EEA0090008AF0A3F02232
:101EC20090005EE0701190007C04F090007B04F0C2
:081ED200E490008AF0A3F02265
:1019080090005EE0705790007C04F0900078E070E2
:101918001A900062E054DFF0C2A39000787401F0DE
:1019280090005FE0701C121FAA8017900062E044CC
:1019380020F0D2A3E4900078F090005FE0700312EA
:101948001E927B017A007992900094E0FD900062EB
:0E195800E0F50E121BA4E490008AF0A3F0222A
:03003E00020F5955
:101E600090005EE0701290007C04F090007B74059E
:091E7000F0E490008AF0A3F022D6
:031FB100021EC24B
:031FB400021EDA30
:101E790090005EE0701290007C04F090007B740486
:091E8900F0E490008AF0A3F022BD
:031FB70002190804
:041BE700AD07AC0694
:101BEB00750A55750B01ECF50CEDF50DE50A250B9A
:101BFB00250C250DF50E750F0D75100A7B007A005F
:101C0B00790A7515007516077F021216E1E4FEFFBF
:011C1B0022A6
:100B7D00900045E020E703020CE4547FF0120E29AB
:100B8D00900061EFF0147003020C1624FD606624D2
:100B9D00FC604E24F8603624F0601E24E0600302F1
:100BAD000C91900065E064407003020CE17440F01C
:100BBD00753301753401020CE1900065E06420701D
:100BCD0003020CE17420F0121E60020CE19000652E
:100BDD00E064107003020CE17410F0121E79020C27
:100BED00E1900065E064087003020CE17408F012F6
:100BFD001FB4020CE1900065E064047003020CE187
:100C0D007404F0121FB1020CE1900065E0640170F4
:100C1D0003020CE17401F090005EE06003020CE150
:100C2D0090007C04F0E531704F7531010536E536E5
:100C3D0024FE601D1460322402702E90005FE0646B
:100C4D000260357402F090008214F0E4900086800A
:100C5D001390005FE06401601F7401F0900083F059
:100C6D00E4900088F0A3F0800FE490005FF0900016
:100C7D0083F0900082F0F536121835E490008AF07A
:100C8D00A3F08050900065E0604AE4F0753302F502
:100C9D0034F52FF530F531D2A4D2A5D2A2D2D89009
:100CAD000062E04402F04404F04408F04410FFF008
:100CBD007B017A007992900094E0FD8F0E121BA4B7
:100CCD00E490005CF090007BE06009A37401F0E417
:080CDD0090007BF0121FBD2204
:10151500121DA3121EF1121E927F02121C7F121FB2
:1015250004121F6CE4F508F509AE08E5097802C355
:1015350033CE33CED8F9FF2492F58274003EF5837D
:10154500E508F0A3E509F04508701A74952FF582B2
:1015550074003EF583745BF074942FF58274003E3D
:10156500F583745AF074922FF974003EFA7B0112D8
:101575001F890509E50970020508C39401E508649A
:1015850080948040A4439280900062E044BFFFF0C5
:101595007B017A007992900094E0FD8F0E121BA4D6
:0F15A50012175690007C7401F0900084F0D2AFC2
:0115B4002214
:10005E0075CF10120B7D3097030201CE900095E004
:10006E00FD750E01750F007510607B017A00799297
:10007E00121B0F900060E024FE603424FE604424C6
:10008E00FC700302014D24F8700302015E24F0702F
:10009E000302016E241F600302017E900064E0647F
:1000AE000870030201CE7408F0121FB40201CE9044
:1000BE000064E0640270030201CE7402F0121FB1FC
:1000CE000201CE900064E0640470030201CE740459
:1000DE00F090005EE060030201CE90007C04F0E53B
:1000EE0031704F7531010536E53624FE601D146002
:1000FE00322402702E90005FE0640260357402F0CC
:10010E0090008214F0E4900086801390005FE0640B
:10011E0001601F7401F0900083F0E4900088F0A35A
:10012E00F0800FE490005FF0900083F0900082F07A
:10013E00F536121835E490008AF0A3F00201CE9045
:10014E000064E0640160797401F0F533F534807079
:10015E00900064E0641060687410F0121E6080609D
:10016E00900064E0642060587420F0121E79805074
:10017E00900064E0604AE4F0753302F534F52FF533
:10018E0030F531D2A4D2A5D2A2D2D8900062E044EA
:10019E0002F04404F04408F04410FFF07B017A00B2
:1001AE007992900094E0FD8F0E121BA4E490005DF6
:1001BE00F090007BE06009A37401F0E490007BF006
:1001CE00E5321460121460482402704EE533640167
:1001DE0070487532018043E5336402700C121FB70C
:1001EE00E4F532F533F52FF530D3E53094B8E52F3D
:1001FE00940B4026753202E4F52FF53090005EE048
:10020E00700404F08005E490005EF012003E800A57
:10021E00E53364027004F532F533900085E0601F1B
:10022E007B017A007992900094E0FD900062E0F5F7
:10023E000E121BA4E4900085F090008CF0A3F090B9
:08024E00007CE07003020329AB
:10025600E4F508F509F0900078E0640170085309A8
:10026600FD430901800C900078E070065309FE43B7
:10027600090290007BE060046403700B5309BF53CE
:10028600097F430920802490007BE06401700B53B2
:1002960008FE53097F430940801190007BE0640209
:1002A60070095309BF5309BF43098090007BE06082
:1002B600046406700B5308FD5308FB430920802491
:1002C60090007BE06404700B5308F753097F4308E2
:1002D60002801190007BE0640570095308FD530805
:1002E600FD43080490005FE06401700B5309F75367
:1002F60009FB430910801C90005FE06402700B53F9
:1003060009FB5309EF43090880095309EF5309F71D
:10031600430904900076E508F0A3E509F0FFAE086E
:03032600121BE7C0
:1003290090007FE06011E4F090007EF0900076E0AC
:10033900FEA3E0FF121BE7C3900089E09410900030
:1003490088E0940E404690005FE06401703EF090B2
:10035900007C04F0D2D9D2A7753302E4F534F52F25
:10036900F530F531F536900078E06005121FAA8066
:1003790003121E92900062E04401FFF07B017A00B3
:100389007992900094E0FD8F0E121BA4C390008710
:10039900E09420900086E0941C404690005FE06461
:1003A90002703EF090007C04F0D2D9D2A7753302D6
:1003B900E4F534F52FF530F531F536900078E06045
:1003C90005121FAA8003121E92900062E04401FFE9
:1003D900F07B017A007992900094E0FD8F0E121B58
:1003E900A4C390008BE0944090008AE09438406F59
:1003F90090007DE07069753302F534F52FF530F51D
:1004090031F53604F090005EF090007CF0E4900045
:100419005FF0900078F090007BF0900065F0C2A347
:10042900D2D9D2D8D2A2D2A5D2A4C281121E92D236
:10043900A7E4900062F0F07402F04404F04408F07C
:100449004410F04401F04440F0A3F07B017A0079B4
:1004590092900094E0FD900062E0F50E121BA42238
:03003B00021B5A4B
:0D1B5A00C0E0C0D075D000C000C006C007BC
:101B6700751D00E59D30E12A539DFDE52324FFFF08
:101B7700E52234FFFEEFB5250BEEB52407752100EE
:101B8700D2A0800E0525E525700205242426F8E657
:021B9700F59FB8
:0B1B9900D007D006D000D0D0D0E03242
:03000B00020CE5FF
:100CE500C0E0C0F0C083C082C0D075D000C000C0D5
:0D0CF50001C002C003C004C005C006C00756
:100D0200758A18758CFC121E13E53460080530E5EF
:100D1200307002052F052EE52EAE2D7002052D1422
:100D2200D394E8EE94035003020DD3752D00752E73
:100D320000900083E0601A900088E475F0011209C7
:100D4200A4FED3E5F09410EE940E4005900083E4E7
:100D5200F0900082E0601A900086E475F0011209BA
:100D6200A4FED3E5F09420EE941C4005900082E4AA
:100D7200F0900084E0601A90008AE475F001120994
:100D8200A4FED3E5F09440EE94384005900084E44C
:100D9200F0900080E0601A90008EE475F001120974
:100DA200A4FED3E5F09408EE94074005900080E499
:100DB200F0900081E0601A900090E475F001120951
:100DC200A4FED3E5F09410EE940E4005900081E469
:100DD200F090007FE0701590007EE0FF04F0C3EF1A
:100DE20094C8748094804004A37401F0900085E05C
:100DF200701A90008C75F0011209A4FED3E5F094EC
:0C0E0200B8EE940B40069000857401F0DF
:100E0E00D007D006D005D004D003D002D001D00038
:0B0E1E00D0D0D082D083D0F0D0E032E2
:101A71000000000000000005000A0BB800C8006467
:101A810000020000000000040000FFFFFFFFFFFF55
:101A91000014022604081105007C022604080E0524
:101AA100006C022604080E05006A022604081005CF
:101AB10000670226040812050070022604081305B7
:021AC100005FC4
:041EB90041005B0089
:0B1F5600901A7BE493FE740193FF22BD
:0B1F6100901A7FE493FE740193FF22AE
:081F9200901A79740193FF22FB
:031FBA007F012282
:101CAB00AD07ED75F008A42499F582E4341AF58399
:101CBB00E493FEED75F008A4249AF582E4341AF54A
:0C1CCB0083E4937C002400FFEC3EFE222A
:101F1700EF75F008A42496F582E4341AF583E49368
:021F2700FF2297
:081F9A00901A73740193FF22F9
:101F2900EF75F008A42497F582E4341AF583E49355
:021F3900FF2285
:081FA200900000E0C313FF22D0
:0A1F7600900000E075F00384FF22E4
:10004600121CABEF7803C333CE33CED8F9FF7C0056
:050056007D0A020939DA
:101A1E00E4FBFAF50DF50CF50BF50A750D7DF50CDD
:101A2E00F50BF50AEBC39417748094805032AF0D0A
:101A3E00AE0CAD0BAC0A7801120A038F0D8E0C8D15
:101A4E000B8C0A30D71774132AF582E43400F58311
:101A5E00EBF00AEAC394067480948050030B80C4A2
:021A6E008A40AC
:011A70002253
:10000E00EF1460121460141460111460152404703F
:10001E0019901A938008901A948003901A95E4937D
:0D002E00FF22901A85740193FF227F0022AB
:101D4900901A77740193900000F0901A917401939E
:0F1D5900900048F0121A1EE4900046F0A3F0220A
:100E2900E4F50AF50EF50DF50CF50BF512F511F5CE
:100E390010F50F121FC05003020F45121D248F0E0B
:100E49008E0D8D0C8C0BE4FBEBC395405047AF0E18
:100E5900AE0DAD0CAC0B7801120A038F0E8E0D8D01
:100E69000C8C0B30D72CE47F01FEFDFC74132BF5A1
:100E790082E43400F583E0F9F8120A16E5124FF519
:100E890012E5114EF511E5104DF510E50F4CF50F72
:100E9900050A0B80B3AF0A7E00C3EF9402748094F5
:100EA900804018D200EF9403748094804005121F8B
:100EB900C38008121F9AEF6002C20020002CE4FFD1
:100EC900FEFDFCAB12AA11A910A80FC31209F2600A
:100ED90010900047E004F07006900046E004F080AE
:100EE90020E4900046F0A3F08017900044E004F05D
:100EF9007006900043E004F0E4F512F511F510F5E1
:100F09000F121F56D3900047E09F900046E09E4085
:100F19000A121FC3E4900046F0A3F0D3900044E006
:100F2900942C900043E09401401D121FC390005B74
:100F39007401F0E4900043F0A3F0800B901A81E46F
:0F0F4900740193FF121079AF12AE11AD10AC0FFF
:010F58002276
:041EBD0041009C0044
:1011980075F002900049120AB7E0FEA3E0FFE515DA
:1011A80075F002900019020AB7E51475F002900074
:1011B80001020AB7E51475F002900031020AB7740B
:1011C800252518F582E43400F58322D3E5169FEE31
:1011D8006480F8E51564809822743D2514F582E44E
:1011E8003400F58322D3FFED9FEE6480F8EC648031
:1011F800982274552514F582E43400F58322E0041E
:10120800F0740D2514F582E43400F58322E5157594
:10121800F002900049020AB7FEC3E5179FEE64800A
:10122800F8E51664809822E53B553FFFE53A553EC0
:10123800FEE539553DFDE538553CFC22742B251457
:10124800F582E43400F58322E4F0FFFEFDFCAB3BBD
:10125800AA3AA939A838C30209F27E00900098E09A
:10126800FCA3E0FD1209278EE78FE622E0FEA3E04B
:10127800FF75F00222A4FFE0C39FE5F06480F874D4
:10128800809822900048E0FB3395E0FAEBAE02220A
:10129800E0FCA3E0FDEF22E0FCA3E0C39F22900066
:0812A80048E0FF3395E0FE224F
:0C1F4A00EF4E6007EF1F70F81E80F522BC
:03005B0002164F3B
:10164F00C0E0C0F0C083C082C0D075D000C000C061
:0D165F0001C002C003C004C005C006C007E2
:10166C00C20290009DE01211A8E5E5F0A3E5E4F0BC
:10167C0090009DE004F0E0C39540400BE4F0900036
:10168C0045E04480F08002D20290009DE0FF121FE2
:10169C001712126290009DE0FF121F29E5E25480A0
:1016AC004FF5E290009DE02413F582E43400F583BD
:0A16BC00E04480F5E8300202D2EEAF
:1016C600D007D006D005D004D003D002D001D00078
:0B16D600D0D0D082D083D0F0D0E03222
:10175600D2AF75E880C201E490009DF0900045F09C
:10176600121D49E4FF12000EEF2401FDE433FC7E56
:101776000B7FB8120939900098EEF0A3EFF0E4FF62
:10178600121F171212627F0212000EEFC454F0FEEF
:10179600C006E4FF12000ED0E02FF5E17F03120031
:1017A6000EE5E254804FF5E27F0112000E8FE31240
:1017B6001AC343A910900013E042E8121C1C021D34
:0117C600F82A
:031FBD00D2EE223F
:101CFF00E4FD900045E0547FF0D2EE900045E020E7
:101D0F00E7127FE87E03121F4A43CF100DEDC394F5
:041D1F003240E82244
:011D2300229D
:101C1C00750A10121CFFAF0A150AEF70F6121D6838
:101C2C00121F928F0A121CFFE4F50BE50BC39540B3
:101C3C005009AF0B1213BA050B80F0AF0A150AEF5F
:021C4C0070E343
:011C4E002273
:101DF800E4FFEFC395405012EF1211A81212981287
:0A1E080011B3ECF0A3EDF00F80E839
:011E120022AD
:101D2400E490009EF0F513E513C39540500EAF13F5
:101D34001213BAAF13120469051380EBAF3BAE3A2A
:041D4400AD39AC38D1
:011D48002278
:020469008F14EE
:10046B00E4F51C75F002EF1211B6121274E51412BA
:10047B0011AB12129FF516EC9EF515E47F01FEFDF4
:10048B00FCA914A801120A168F3F8E3E8D3D8C3CA1
:10049B00AF14121CAB8E1A8F1BC3E516951BE51AF6
:1004AB001211D840057517018003E4F517E51764A1
:1004BB000160030205F0742525141211CBE0C394DF
:1004CB00FA500A742525141211CBE004F012122FE6
:1004DB00E4FBFAF9F8C31209F260030205D39000AA
:1004EB0000E0F519121FBAEF6028E4F517F518E5CF
:1004FB0018C39540500F1211C7E0C3940140020579
:10050B0017051880EAE517C394034006740F2519E5
:10051B00F519742525141211CBE0C395195003025C
:10052B0005D3E4F517121F9AEF7051F518E518C3B0
:10053B009540501AE51465186010121F761211C7FA
:10054B00E0C39F40057517018004051880DF121F5B
:10055B00BAEF7052E517704EF518E518C395405079
:10056B0045E51465186011121F76742B25181212AD
:10057B0048E0C39F4002802B051880DE121FBAEFA4
:10058B007024F519F518E518C39540500F1211C7D3
:10059B00E0C3940240020519051880EAE519C394DB
:1005AB00034003751701E517B40102D200E53B4583
:1005BB003FFFE53A453EFEE539453DFDE538453C17
:1005CB008F3B8E3A8D39F5381211E1E4F01211FAA6
:1005DB00E4F01211BCE4F0A3F0740D2514F582E4E1
:1005EB0034000207C3AF141200461211D340081295
:1005FB001244E004F0800B90009EE004F0121244D1
:10060B00E4F01212A6C3E49FFDE49EFCC3E5169D25
:10061B00EC1211D840661211D350611211E1E412A1
:10062B00120812125060030207301211BCE5158537
:10063B0016F012098E121F611211BCE0FCA3E0C36D
:10064B001211F040091211B1E475F0018021121F53
:10065B0061C3E49FFFE49EFE1211BCE0FCA3E0C368
:10066B001211F040030207301211B174FFF5F012B2
:10067B00098E1211BCE4F0A3F0020730900048E0A1
:10068B00FFFD3395E0FCC3E49DFDE49CFCC3E51644
:10069B009DEC1211D850571211E1121206E4F01210
:1006AB0011E1E0FE75F00A84E5F07034EEC394645A
:1006BB00400E1211E1E4F0D20190005B04F08020B7
:1006CB001211B1C083C082121298A2E713FF3395A7
:1006DB00E0FEC3ED9FFFEC9ED082D083F0A3EFF042
:1006EB00900097E06514703D74FFF0020730121212
:1006FB00A61211D3402F1211E112125070271212B1
:10070B0009121206E0B4201D121209E4F090004801
:10071B00E0A2E713A2E713FF3395E0FE1211B1EE4F
:10072B008FF012098E12122F4D4E4F70030207CF0E
:10073B00E51BAE1A7802CEA2E713CE13D8F8FFC38F
:10074B00E51B9FFFE51A9EFEC31211D4506F1211C9
:10075B00FAE004F0121FA28F19E4F518E518C395FF
:10076B0040500F1211C7E0C3940140020517051842
:10077B0080EAE517C394034006900000E0F51912D8
:10078B0011FAE0C3951940721211FAE4F0AF3FAEC3
:10079B003EAD3DAC3C1209E5E53B5FFFE53A5EFE45
:1007AB00E5395DFDE5385C8F3B8E3A8D39F5387454
:1007BB00252514F582E43400F583E4F0221211FAB6
:1007CB00E014F022742525141211CBE4F0E540144B
:1007DB006514702690009EE0C39540401DE4F5180B
:1007EB00E518C39540500D1211C7E0600375170152
:0A07FB00051880ECE5177002C2003B
:0108050022D0
:101D6800E4FFEFC39540501575F002EF1211AB1266
:0D1D78001298121217ECF0A3EDF00F80E5A9
:011D8500223B
:0213BA008F158D
:1013BC00EF12119812129FF517EC9EF516AF15123D
:1013CC001CABAD07AC06D3E5179DEC121226500BE7
:1013DC00C3E49DFFE49C121220500B1211A6E0FEF8
:1013EC00A3E0FF021462ECA2E713FEED13FFD3128D
:1013FC001222500BC3E49FFFE49E121220502712BE
:10140C001215E0FCA3E0FDECC313FEED13FFC3EDDE
:10141C009FFDEC9EFC1211A6E0C313FEA3E0132D5E
:10142C00FFEC3EFE8030121215E0FCA3E0FDAE0492
:10143C007803CEC313CE13D8F9FFC3ED9FFDEC9EFA
:10144C00FC1211A6E0FEA3E07803CEC313CE13D892
:10145C00F92DFFEC3EFE121215EEF0A3EFF0E515A0
:08146C00121198EEF0A3EFF05D
:011474002255
:031FC000A2012259
:031FC300D2012226
:101AC300E4FFEFC39540502B74252F1211CBE4F0A4
:101AD300743D2F1211E5E4F074552F1211FEE4F05A
:101AE300EF1211BEE4F0A3F0742B2F121248E4F0AE
:101AF3000F80CFE4F53BF53AF539F538900097744C
:0B1B0300FFF0E490009AF0A3F0C20194
:011B0E0022B4
:021079008F13D3
:10107B0090009CE0C394034035E4F090005BE0707B
:10108B0022F514E514C39540501975F002E51412BE
:10109B00121A121274E5141211B6EEF0A3EFF0054A
:1010AB001480E0121AC3C201E490005BF02290009E
:1010BB0096E004F0E0B51308121D68E4900097F079
:1010CB00900096E0D395135003021197E4F514E5C5
:1010DB0014C39540507A75F002E51412121A1212CD
:1010EB0074E5141211AB12129FFFEC9EAD07FC902E
:1010FB00005BE0702912128B7802C333CE33CED84B
:10110B00F91211ED4040E49BFFE49AFEEF7802C325
:10111B0033CE33CED8F9C31211EE502A80321212CD
:10112B008B7803C333CE33CED8F91211ED4017E4CD
:10113B009BFFE49AFEEF7803C333CE33CED8F9FF8F
:10114B00C31211EF400AAF141213BA05140210DACE
:10115B00E514B54006900097E004F0E51375F00830
:10116B0090009612127D4024E4F0C20090009CE0A7
:10117B0004F0E51375F00490009712127D400DE416
:0C118B0090009CF0121DF8121AC3C20163
:011197002235
:1015CF00020003E493A3F8E493A34003F68001F22F
:1015DF0008DFF48029E493A3F85407240CC8C3331D
:1015EF00C4540F4420C8834004F456800146F6DFEC
:1015FF00E4800B0102040810204080901EAAE47EB4
:10160F00019360BCA3FF543F30E509541FFEE493E0
:10161F00A360010ECF54C025E060A840B8E493A3A7
:10162F00FAE493A3F8E493A3C8C582C8CAC583CAD2
:10163F00F0A3C8C582C8CAC583CADFE9DEE780BE8A
:011EC1000020
:10080600E709F608DFFA8046E709F208DFFA803ED4
:1008160088828C83E709F0A3DFFA8032E309F608C1
:10082600DFFA8078E309F208DFFA807088828C8329
:10083600E309F0A3DFFA806489828A83E0A3F608DD
:10084600DFFA805889828A83E0A3F208DFFA804CB7
:1008560080D280FA80C680D4806980F2803380108E
:1008660080A680EA809A80A880DA80E280CA8033F7
:1008760089828A83ECFAE493A3C8C582C8CCC5836F
:10088600CCF0A3C8C582C8CCC583CCDFE9DEE7803F
:100896000D89828A83E493A3F608DFF9ECFAA9F0BE
:1008A600EDFB2289828A83ECFAE0A3C8C582C8CC14
:1008B600C583CCF0A3C8C582C8CCC583CCDFEADE2D
:1008C600E880DB89828A83E493A3F208DFF980CC8F
:1008D60088F0EF60010E4E60C388F0ED2402B40488
:1008E6000050B9F582EB2402B4040050AF2323452F
:0608F600822390085673F6
:1008FC00BB010689828A83E0225002E722BBFE02FA
:09090C00E32289828A83E493222C
:10091500BB010689828A83F0225002F722BBFE01C1
:02092500F322BB
:10092700EF8DF0A4A8F0CF8CF0A428CE8DF0A42EE4
:02093700FE229E
:10093900BC000BBE0029EF8DF084FFADF022E4CCA2
:10094900F875F008EF2FFFEE33FEEC33FCEE9DEC6B
:10095900984005FCEE9DFE0FD5F0E9E4CEFD22EDB1
:10096900F8F5F0EE8420D21CFEADF075F008EF2FFB
:10097900FFED33FD4007985006D5F0F222C398FDEC
:050989000FD5F0EA2289
:10098E00C5F0F8A3E028F0C5F0F8E58215827002F4
:06099E001583E038F02291
:1009A400A3F8E0C5F025F0F0E58215827002158306
:0609B400E0C838F0E82263
:1009BA00BB010A89828A83E0F5F0A3E02250068708
:1009CA00F009E71922BBFE07E3F5F009E3192289CA
:0B09DA00828A83E493F5F074019322FD
:0D09E500CFF4CFCEF4CECDF4CDCCF4CC22A7
:1009F200EB9FF5F0EA9E42F0E99D42F0E89C45F05B
:010A020022D1
:100A0300E8600FECC313FCED13FDEE13FEEF13FFD1
:030A1300D8F122F5
:100A1600E8600FEFC333FFEE33FEED33FDEC33FC3E
:030A2600D8F122E2
:100A2900BB010DE58229F582E5833AF583020AFBCC
:100A39005007E92582F8020AEFBBFE07E92582F88B
:100A4900020B07E58229F582E5833AF583020B1348
:100A5900BB010789828A83020B655005E9F8020BFD
:0A0A690059BBFE05E9F8020B7122EB
:100A7300BB010DE58229F582E5833AF583020B6517
:100A83005007E92582F8020B59BBFE07E92582F8D6
:040A9300020B7122BF
:100A9700BB010789828A83020B305005E9F8020BF4
:100AA70023BBFE05E9F8020B3C89828A83020B49C6
:0C0AB700A42582F582E5F03583F583224A
:100AC300EF4E6012EF60010EEDBB010B89828A834A
:100AD300F0A3DFFCDEFA2289F05007F709DFFCA957
:0C0AE300F022BBFEFCF309DFFCA9F022AE
:0C0AEF00E6FC08E6FD08E6FE08E6FF2233
:0C0AFB00E0FCA3E0FDA3E0FEA3E0FF226E
:0C0B0700E2FC08E2FD08E2FE08E2FF222A
:100B1300E493FC740193FD740293FE740393FF2228
:0D0B2300E6FB08E6F908E6FA08E6CBF82242
:0C0B3000E0F8A3E0F9A3E0FAA3E0FB2248
:0D0B3C00E2FB08E2F908E2FA08E2CBF82239
:100B4900E493F8740193F9740293FA740393FB2202
:0C0B5900ECF608EDF608EEF608EFF622C8
:0C0B6500ECF0A3EDF0A3EEF0A3EFF02203
:0C0B7100ECF208EDF208EEF208EFF222C0
:00000001FF
